{
  "contractName": "Dex",
  "abi": [
    {
      "inputs": [
        {
          "internalType": "address[]",
          "name": "_tokenAddrs",
          "type": "address[]"
        }
      ],
      "stateMutability": "nonpayable",
      "type": "constructor"
    },
    {
      "anonymous": false,
      "inputs": [
        {
          "indexed": false,
          "internalType": "address",
          "name": "_buyer",
          "type": "address"
        },
        {
          "indexed": false,
          "internalType": "address",
          "name": "_tokenAddr",
          "type": "address"
        },
        {
          "indexed": false,
          "internalType": "uint256",
          "name": "_cost",
          "type": "uint256"
        },
        {
          "indexed": false,
          "internalType": "uint256",
          "name": "_amount",
          "type": "uint256"
        }
      ],
      "name": "buy",
      "type": "event"
    },
    {
      "anonymous": false,
      "inputs": [
        {
          "indexed": false,
          "internalType": "address",
          "name": "_seller",
          "type": "address"
        },
        {
          "indexed": false,
          "internalType": "address",
          "name": "_tokenAddr",
          "type": "address"
        },
        {
          "indexed": false,
          "internalType": "uint256",
          "name": "_cost",
          "type": "uint256"
        },
        {
          "indexed": false,
          "internalType": "uint256",
          "name": "_amount",
          "type": "uint256"
        }
      ],
      "name": "sell",
      "type": "event"
    },
    {
      "inputs": [
        {
          "internalType": "address",
          "name": "",
          "type": "address"
        }
      ],
      "name": "supportedTokenAddr",
      "outputs": [
        {
          "internalType": "bool",
          "name": "",
          "type": "bool"
        }
      ],
      "stateMutability": "view",
      "type": "function",
      "constant": true
    },
    {
      "inputs": [
        {
          "internalType": "address",
          "name": "_tokenAddr",
          "type": "address"
        },
        {
          "internalType": "uint256",
          "name": "_cost",
          "type": "uint256"
        },
        {
          "internalType": "uint256",
          "name": "_amount",
          "type": "uint256"
        }
      ],
      "name": "buyToken",
      "outputs": [],
      "stateMutability": "payable",
      "type": "function",
      "payable": true
    },
    {
      "inputs": [
        {
          "internalType": "address",
          "name": "_tokenAddr",
          "type": "address"
        },
        {
          "internalType": "uint256",
          "name": "_cost",
          "type": "uint256"
        },
        {
          "internalType": "uint256",
          "name": "_amount",
          "type": "uint256"
        }
      ],
      "name": "sellToken",
      "outputs": [],
      "stateMutability": "nonpayable",
      "type": "function"
    }
  ],
  "bytecode": "0x60806040523480156200001157600080fd5b5060405162000ff538038062000ff58339818101604052810190620000379190620002c4565b60005b8151811015620000ce5760016000808484815181106200005f576200005e62000315565b5b602002602001015173ffffffffffffffffffffffffffffffffffffffff1673ffffffffffffffffffffffffffffffffffffffff16815260200190815260200160002060006101000a81548160ff0219169083151502179055508080620000c5906200037d565b9150506200003a565b5050620003ca565b6000604051905090565b600080fd5b600080fd5b600080fd5b6000601f19601f8301169050919050565b7f4e487b7100000000000000000000000000000000000000000000000000000000600052604160045260246000fd5b6200013a82620000ef565b810181811067ffffffffffffffff821117156200015c576200015b62000100565b5b80604052505050565b600062000171620000d6565b90506200017f82826200012f565b919050565b600067ffffffffffffffff821115620001a257620001a162000100565b5b602082029050602081019050919050565b600080fd5b600073ffffffffffffffffffffffffffffffffffffffff82169050919050565b6000620001e582620001b8565b9050919050565b620001f781620001d8565b81146200020357600080fd5b50565b6000815190506200021781620001ec565b92915050565b6000620002346200022e8462000184565b62000165565b905080838252602082019050602084028301858111156200025a5762000259620001b3565b5b835b8181101562000287578062000272888262000206565b8452602084019350506020810190506200025c565b5050509392505050565b600082601f830112620002a957620002a8620000ea565b5b8151620002bb8482602086016200021d565b91505092915050565b600060208284031215620002dd57620002dc620000e0565b5b600082015167ffffffffffffffff811115620002fe57620002fd620000e5565b5b6200030c8482850162000291565b91505092915050565b7f4e487b7100000000000000000000000000000000000000000000000000000000600052603260045260246000fd5b7f4e487b7100000000000000000000000000000000000000000000000000000000600052601160045260246000fd5b6000819050919050565b60006200038a8262000373565b91507fffffffffffffffffffffffffffffffffffffffffffffffffffffffffffffffff8203620003bf57620003be62000344565b5b600182019050919050565b610c1b80620003da6000396000f3fe6080604052600436106100345760003560e01c8063096db4d6146100395780633e11741f14610076578063e671499b1461009f575b600080fd5b34801561004557600080fd5b50610060600480360381019061005b91906106a1565b6100bb565b60405161006d91906106e9565b60405180910390f35b34801561008257600080fd5b5061009d6004803603810190610098919061073a565b6100db565b005b6100b960048036038101906100b4919061073a565b6103e4565b005b60006020528060005260406000206000915054906101000a900460ff1681565b82600115156000808373ffffffffffffffffffffffffffffffffffffffff1673ffffffffffffffffffffffffffffffffffffffff16815260200190815260200160002060009054906101000a900460ff1615151461016e576040517f08c379a0000000000000000000000000000000000000000000000000000000008152600401610165906107ea565b60405180910390fd5b6000849050838173ffffffffffffffffffffffffffffffffffffffff166370a08231336040518263ffffffff1660e01b81526004016101ad9190610819565b602060405180830381865afa1580156101ca573d6000803e3d6000fd5b505050506040513d601f19601f820116820180604052508101906101ee9190610849565b101561022f576040517f08c379a0000000000000000000000000000000000000000000000000000000008152600401610226906108c2565b60405180910390fd5b82471015610272576040517f08c379a00000000000000000000000000000000000000000000000000000000081526004016102699061092e565b60405180910390fd5b8073ffffffffffffffffffffffffffffffffffffffff166323b872dd3330876040518463ffffffff1660e01b81526004016102af9392919061095d565b6020604051808303816000875af11580156102ce573d6000803e3d6000fd5b505050506040513d601f19601f820116820180604052508101906102f291906109c0565b5060003373ffffffffffffffffffffffffffffffffffffffff168460405161031990610a1e565b60006040518083038185875af1925050503d8060008114610356576040519150601f19603f3d011682016040523d82523d6000602084013e61035b565b606091505b505090508061039f576040517f08c379a000000000000000000000000000000000000000000000000000000000815260040161039690610a7f565b60405180910390fd5b7f31de7d15e9e6c3b6f319c842341b735c0f9d7a5d06944314495f952400bd74c0338787876040516103d49493929190610a9f565b60405180910390a1505050505050565b82600115156000808373ffffffffffffffffffffffffffffffffffffffff1673ffffffffffffffffffffffffffffffffffffffff16815260200190815260200160002060009054906101000a900460ff16151514610477576040517f08c379a000000000000000000000000000000000000000000000000000000000815260040161046e906107ea565b60405180910390fd5b6000849050833410156104bf576040517f08c379a00000000000000000000000000000000000000000000000000000000081526004016104b690610b30565b60405180910390fd5b828173ffffffffffffffffffffffffffffffffffffffff166370a08231306040518263ffffffff1660e01b81526004016104f99190610819565b602060405180830381865afa158015610516573d6000803e3d6000fd5b505050506040513d601f19601f8201168201806040525081019061053a9190610849565b101561057b576040517f08c379a000000000000000000000000000000000000000000000000000000000815260040161057290610b9c565b60405180910390fd5b8073ffffffffffffffffffffffffffffffffffffffff1663a9059cbb33856040518363ffffffff1660e01b81526004016105b6929190610bbc565b6020604051808303816000875af11580156105d5573d6000803e3d6000fd5b505050506040513d601f19601f820116820180604052508101906105f991906109c0565b507fa9d424e2b661a4cf6090e4849fd2d81c17106afa4b26188dcc493a69ea4c2b5e3386868660405161062f9493929190610a9f565b60405180910390a15050505050565b600080fd5b600073ffffffffffffffffffffffffffffffffffffffff82169050919050565b600061066e82610643565b9050919050565b61067e81610663565b811461068957600080fd5b50565b60008135905061069b81610675565b92915050565b6000602082840312156106b7576106b661063e565b5b60006106c58482850161068c565b91505092915050565b60008115159050919050565b6106e3816106ce565b82525050565b60006020820190506106fe60008301846106da565b92915050565b6000819050919050565b61071781610704565b811461072257600080fd5b50565b6000813590506107348161070e565b92915050565b6000806000606084860312156107535761075261063e565b5b60006107618682870161068c565b935050602061077286828701610725565b925050604061078386828701610725565b9150509250925092565b600082825260208201905092915050565b7f5468697320746f6b656e206973206e6f7420737570706f727465640000000000600082015250565b60006107d4601b8361078d565b91506107df8261079e565b602082019050919050565b60006020820190508181036000830152610803816107c7565b9050919050565b61081381610663565b82525050565b600060208201905061082e600083018461080a565b92915050565b6000815190506108438161070e565b92915050565b60006020828403121561085f5761085e61063e565b5b600061086d84828501610834565b91505092915050565b7f496e73756666696369656e7420746f6b656e2062616c616e63652e2e2e000000600082015250565b60006108ac601d8361078d565b91506108b782610876565b602082019050919050565b600060208201905081810360008301526108db8161089f565b9050919050565b7f44657820646f6573206e6f74206861766520656e6f756768204554482e2e2e00600082015250565b6000610918601f8361078d565b9150610923826108e2565b602082019050919050565b600060208201905081810360008301526109478161090b565b9050919050565b61095781610704565b82525050565b6000606082019050610972600083018661080a565b61097f602083018561080a565b61098c604083018461094e565b949350505050565b61099d816106ce565b81146109a857600080fd5b50565b6000815190506109ba81610994565b92915050565b6000602082840312156109d6576109d561063e565b5b60006109e4848285016109ab565b91505092915050565b600081905092915050565b50565b6000610a086000836109ed565b9150610a13826109f8565b600082019050919050565b6000610a29826109fb565b9150819050919050565b7f455448207472616e73666572206661696c656400000000000000000000000000600082015250565b6000610a6960138361078d565b9150610a7482610a33565b602082019050919050565b60006020820190508181036000830152610a9881610a5c565b9050919050565b6000608082019050610ab4600083018761080a565b610ac1602083018661080a565b610ace604083018561094e565b610adb606083018461094e565b95945050505050565b7f496e73756666696369656e742045544800000000000000000000000000000000600082015250565b6000610b1a60108361078d565b9150610b2582610ae4565b602082019050919050565b60006020820190508181036000830152610b4981610b0d565b9050919050565b7f546f6b656e20736f6c64206f7574000000000000000000000000000000000000600082015250565b6000610b86600e8361078d565b9150610b9182610b50565b602082019050919050565b60006020820190508181036000830152610bb581610b79565b9050919050565b6000604082019050610bd1600083018561080a565b610bde602083018461094e565b939250505056fea26469706673582212203db020687a9756e807a9798ec4aecfa782891a95c66d818978fef7e384c2292a64736f6c634300080e0033",
  "immutableReferences": {},
  "source": "// SPDX-License-Identifier: MIT\npragma solidity ^0.8.14;\n\nimport \"./ERC20.sol\";\n\ncontract Dex {\n\n    // \n    // _buyer_tokenAddrETH_cost_amount\n    event buy(address _buyer, address _tokenAddr, uint256 _cost, uint256 _amount);\n    // \n    // _seller_tokenAddrDEX_costDEXETH_amount\n    event sell(address _seller, address _tokenAddr, uint256 _cost, uint256 _amount);\n\n    // \n    mapping(address => bool) public supportedTokenAddr;\n\n    // _tokenAddrsupportedTokenAddr\n    // buyTokensellToken\n    modifier supportsToken(address _tokenAddr) {\n        // supportedTokenAddr_tokenAddrtrue\n        require(supportedTokenAddr[_tokenAddr] == true, \"This token is not supported\");\n        // _;\n        _;\n    }\n\n    // \n    // supportedTokenAddrtrue\n    // _tokenAddrs\n    constructor(address[] memory _tokenAddrs) {\n        // _tokenAddrs\n        for(uint i=0; i < _tokenAddrs.length; i++) {\n            supportedTokenAddr[_tokenAddrs[i]] = true;\n        }\n    }\n\n    // \n    // _tokenAddrETH_cost_amount\n    // DEXETHpayable\n    // supportsToken\n    function buyToken(address _tokenAddr, uint256 _cost, uint256 _amount) external payable supportsToken(_tokenAddr) {\n        // ERC20_tokenAddr\n        ERC20 token = ERC20(_tokenAddr);\n        // ETHcost\n        require(msg.value >= _cost, \"Insufficient ETH\");\n        // DEX\n        require(token.balanceOf(address(this)) >= _amount, \"Token sold out\");\n        // msg.sender_amount\n        token.transfer(msg.sender, _amount);\n        // \n        emit buy(msg.sender, _tokenAddr, _cost, _amount);\n    }\n\n    // \n    // _tokenAddr_costETH_amount\n    // supportsToken\n    function sellToken(address _tokenAddr, uint256 _cost, uint256 _amount) external supportsToken(_tokenAddr) {\n        // ERC20token_tokenAddrERC20\n        ERC20 token = ERC20(_tokenAddr);\n        // DEXmsg.sender\n        require(token.balanceOf(msg.sender) >= _cost, \"Insufficient token balance...\");\n        // msg.senderETHDEXETH\n        // thisaddress(this)this\n        require(address(this).balance >= _amount, \"Dex does not have enough ETH...\");\n        // msg.senderDEX\n        // tokentransferFromERC20.soltransferFrom\n        token.transferFrom(msg.sender, address(this), _cost);\n        // DEXmsg.senderETH\n        // msg.senderpayableETH\n        // boolsuccesstruefalse\n        (bool success, ) = payable(msg.sender).call{value: _amount}(\"\");\n        // ETH\n        require(success, \"ETH transfer failed\");\n        // sell\n        emit sell(msg.sender, _tokenAddr, _cost, _amount);\n    }\n\n}\n",
  "sourcePath": "/Users/naoyamatsuo/work/web3/tmswap/contracts/dex.sol",
  "compiler": {
    "name": "solc",
    "version": "0.8.14+commit.80d49f37.Emscripten.clang"
  },
  "schemaVersion": "3.4.8",
  "updatedAt": "2022-07-17T12:10:53.581Z",
  "networkType": "ethereum",
  "devdoc": {
    "kind": "dev",
    "methods": {},
    "version": 1
  },
  "userdoc": {
    "kind": "user",
    "methods": {},
    "version": 1
  }
}